{
  "_format": "hh-sol-artifact-1",
  "contractName": "Binance2",
  "sourceName": "contracts/Binance.sol",
  "abi": [
    {
      "inputs": [],
      "stateMutability": "nonpayable",
      "type": "constructor"
    },
    {
      "anonymous": false,
      "inputs": [
        {
          "indexed": true,
          "internalType": "address",
          "name": "owner",
          "type": "address"
        },
        {
          "indexed": true,
          "internalType": "address",
          "name": "spender",
          "type": "address"
        },
        {
          "indexed": false,
          "internalType": "uint256",
          "name": "value",
          "type": "uint256"
        }
      ],
      "name": "Approval",
      "type": "event"
    },
    {
      "anonymous": false,
      "inputs": [
        {
          "indexed": false,
          "internalType": "uint256",
          "name": "amount",
          "type": "uint256"
        },
        {
          "indexed": false,
          "internalType": "address",
          "name": "to",
          "type": "address"
        }
      ],
      "name": "Locked",
      "type": "event"
    },
    {
      "anonymous": false,
      "inputs": [
        {
          "indexed": true,
          "internalType": "address",
          "name": "from",
          "type": "address"
        },
        {
          "indexed": true,
          "internalType": "address",
          "name": "to",
          "type": "address"
        },
        {
          "indexed": false,
          "internalType": "uint256",
          "name": "value",
          "type": "uint256"
        }
      ],
      "name": "Transfer",
      "type": "event"
    },
    {
      "anonymous": false,
      "inputs": [
        {
          "indexed": false,
          "internalType": "uint256",
          "name": "amount",
          "type": "uint256"
        },
        {
          "indexed": false,
          "internalType": "address",
          "name": "to",
          "type": "address"
        }
      ],
      "name": "Unlocked",
      "type": "event"
    },
    {
      "inputs": [
        {
          "internalType": "address",
          "name": "owner",
          "type": "address"
        },
        {
          "internalType": "address",
          "name": "spender",
          "type": "address"
        }
      ],
      "name": "allowance",
      "outputs": [
        {
          "internalType": "uint256",
          "name": "",
          "type": "uint256"
        }
      ],
      "stateMutability": "view",
      "type": "function"
    },
    {
      "inputs": [
        {
          "internalType": "address",
          "name": "spender",
          "type": "address"
        },
        {
          "internalType": "uint256",
          "name": "amount",
          "type": "uint256"
        }
      ],
      "name": "approve",
      "outputs": [
        {
          "internalType": "bool",
          "name": "",
          "type": "bool"
        }
      ],
      "stateMutability": "nonpayable",
      "type": "function"
    },
    {
      "inputs": [
        {
          "internalType": "address",
          "name": "account",
          "type": "address"
        }
      ],
      "name": "balanceOf",
      "outputs": [
        {
          "internalType": "uint256",
          "name": "",
          "type": "uint256"
        }
      ],
      "stateMutability": "view",
      "type": "function"
    },
    {
      "inputs": [],
      "name": "decimals",
      "outputs": [
        {
          "internalType": "uint8",
          "name": "",
          "type": "uint8"
        }
      ],
      "stateMutability": "view",
      "type": "function"
    },
    {
      "inputs": [
        {
          "internalType": "address",
          "name": "spender",
          "type": "address"
        },
        {
          "internalType": "uint256",
          "name": "subtractedValue",
          "type": "uint256"
        }
      ],
      "name": "decreaseAllowance",
      "outputs": [
        {
          "internalType": "bool",
          "name": "",
          "type": "bool"
        }
      ],
      "stateMutability": "nonpayable",
      "type": "function"
    },
    {
      "inputs": [
        {
          "internalType": "address",
          "name": "spender",
          "type": "address"
        },
        {
          "internalType": "uint256",
          "name": "addedValue",
          "type": "uint256"
        }
      ],
      "name": "increaseAllowance",
      "outputs": [
        {
          "internalType": "bool",
          "name": "",
          "type": "bool"
        }
      ],
      "stateMutability": "nonpayable",
      "type": "function"
    },
    {
      "inputs": [
        {
          "internalType": "address",
          "name": "_address",
          "type": "address"
        },
        {
          "internalType": "uint256",
          "name": "amount",
          "type": "uint256"
        }
      ],
      "name": "lockFunds",
      "outputs": [
        {
          "internalType": "bool",
          "name": "",
          "type": "bool"
        }
      ],
      "stateMutability": "nonpayable",
      "type": "function"
    },
    {
      "inputs": [
        {
          "internalType": "address",
          "name": "to",
          "type": "address"
        },
        {
          "internalType": "uint256",
          "name": "amount",
          "type": "uint256"
        }
      ],
      "name": "mint",
      "outputs": [],
      "stateMutability": "nonpayable",
      "type": "function"
    },
    {
      "inputs": [],
      "name": "name",
      "outputs": [
        {
          "internalType": "string",
          "name": "",
          "type": "string"
        }
      ],
      "stateMutability": "view",
      "type": "function"
    },
    {
      "inputs": [
        {
          "internalType": "address",
          "name": "_address",
          "type": "address"
        }
      ],
      "name": "presentLockedFunds",
      "outputs": [
        {
          "internalType": "uint256",
          "name": "",
          "type": "uint256"
        }
      ],
      "stateMutability": "view",
      "type": "function"
    },
    {
      "inputs": [],
      "name": "symbol",
      "outputs": [
        {
          "internalType": "string",
          "name": "",
          "type": "string"
        }
      ],
      "stateMutability": "view",
      "type": "function"
    },
    {
      "inputs": [],
      "name": "totalSupply",
      "outputs": [
        {
          "internalType": "uint256",
          "name": "",
          "type": "uint256"
        }
      ],
      "stateMutability": "view",
      "type": "function"
    },
    {
      "inputs": [
        {
          "internalType": "address",
          "name": "to",
          "type": "address"
        },
        {
          "internalType": "uint256",
          "name": "amount",
          "type": "uint256"
        }
      ],
      "name": "transfer",
      "outputs": [
        {
          "internalType": "bool",
          "name": "",
          "type": "bool"
        }
      ],
      "stateMutability": "nonpayable",
      "type": "function"
    },
    {
      "inputs": [
        {
          "internalType": "address",
          "name": "from",
          "type": "address"
        },
        {
          "internalType": "address",
          "name": "to",
          "type": "address"
        },
        {
          "internalType": "uint256",
          "name": "amount",
          "type": "uint256"
        }
      ],
      "name": "transferFrom",
      "outputs": [
        {
          "internalType": "bool",
          "name": "",
          "type": "bool"
        }
      ],
      "stateMutability": "nonpayable",
      "type": "function"
    },
    {
      "inputs": [
        {
          "internalType": "address",
          "name": "_address",
          "type": "address"
        },
        {
          "internalType": "uint256",
          "name": "amount",
          "type": "uint256"
        }
      ],
      "name": "unlockFunds",
      "outputs": [
        {
          "internalType": "bool",
          "name": "",
          "type": "bool"
        }
      ],
      "stateMutability": "nonpayable",
      "type": "function"
    }
  ],
  "bytecode": "0x60806040523480156200001157600080fd5b506040518060400160405280600881526020017f42696e616e6365320000000000000000000000000000000000000000000000008152506040518060400160405280600481526020017f424e423200000000000000000000000000000000000000000000000000000000815250816003908051906020019062000096929190620000b8565b508060049080519060200190620000af929190620000b8565b505050620001cd565b828054620000c69062000168565b90600052602060002090601f016020900481019282620000ea576000855562000136565b82601f106200010557805160ff191683800117855562000136565b8280016001018555821562000136579182015b828111156200013557825182559160200191906001019062000118565b5b50905062000145919062000149565b5090565b5b80821115620001645760008160009055506001016200014a565b5090565b600060028204905060018216806200018157607f821691505b602082108114156200019857620001976200019e565b5b50919050565b7f4e487b7100000000000000000000000000000000000000000000000000000000600052602260045260246000fd5b61171080620001dd6000396000f3fe608060405234801561001057600080fd5b50600436106100f55760003560e01c806340c10f191161009757806395d89b411161006657806395d89b41146102c0578063a457c2d7146102de578063a9059cbb1461030e578063dd62ed3e1461033e576100f5565b806340c10f191461021457806361971b611461023057806370a08231146102605780638a75eb0414610290576100f5565b806318160ddd116100d357806318160ddd1461017857806323b872dd14610196578063313ce567146101c657806339509351146101e4576100f5565b806306fdde03146100fa578063095ea7b31461011857806312e382b414610148575b600080fd5b61010261036e565b60405161010f9190611130565b60405180910390f35b610132600480360381019061012d9190610f4c565b610400565b60405161013f9190611115565b60405180910390f35b610162600480360381019061015d9190610f4c565b610423565b60405161016f9190611115565b60405180910390f35b6101806104be565b60405161018d9190611252565b60405180910390f35b6101b060048036038101906101ab9190610efd565b6104c8565b6040516101bd9190611115565b60405180910390f35b6101ce6104f7565b6040516101db9190611296565b60405180910390f35b6101fe60048036038101906101f99190610f4c565b610500565b60405161020b9190611115565b60405180910390f35b61022e60048036038101906102299190610f4c565b610537565b005b61024a60048036038101906102459190610e98565b610545565b6040516102579190611252565b60405180910390f35b61027a60048036038101906102759190610e98565b61058e565b6040516102879190611252565b60405180910390f35b6102aa60048036038101906102a59190610f4c565b6105d6565b6040516102b79190611115565b60405180910390f35b6102c8610671565b6040516102d59190611130565b60405180910390f35b6102f860048036038101906102f39190610f4c565b610703565b6040516103059190611115565b60405180910390f35b61032860048036038101906103239190610f4c565b61077a565b6040516103359190611115565b60405180910390f35b61035860048036038101906103539190610ec1565b61079d565b6040516103659190611252565b60405180910390f35b60606003805461037d906113df565b80601f01602080910402602001604051908101604052809291908181526020018280546103a9906113df565b80156103f65780601f106103cb576101008083540402835291602001916103f6565b820191906000526020600020905b8154815290600101906020018083116103d957829003601f168201915b5050505050905090565b60008061040b610824565b905061041881858561082c565b600191505092915050565b600081600560008573ffffffffffffffffffffffffffffffffffffffff1673ffffffffffffffffffffffffffffffffffffffff168152602001908152602001600020600082825461047491906112cd565b925050819055507f748bbc70c40b2e3e3b828688a7a7d8c2afb1e06ebe33406a029f4e985f94e07a82846040516104ac92919061126d565b60405180910390a16001905092915050565b6000600254905090565b6000806104d3610824565b90506104e08582856109f7565b6104eb858585610a83565b60019150509392505050565b60006012905090565b60008061050b610824565b905061052c81858561051d858961079d565b61052791906112cd565b61082c565b600191505092915050565b6105418282610d04565b5050565b6000600560008373ffffffffffffffffffffffffffffffffffffffff1673ffffffffffffffffffffffffffffffffffffffff168152602001908152602001600020549050919050565b60008060008373ffffffffffffffffffffffffffffffffffffffff1673ffffffffffffffffffffffffffffffffffffffff168152602001908152602001600020549050919050565b600081600560008573ffffffffffffffffffffffffffffffffffffffff1673ffffffffffffffffffffffffffffffffffffffff16815260200190815260200160002060008282546106279190611323565b925050819055507fe7536184071702b58fe23a1d7d0df5fb9eed9a3176bbae54cf3e17d45f77ac32828460405161065f92919061126d565b60405180910390a16001905092915050565b606060048054610680906113df565b80601f01602080910402602001604051908101604052809291908181526020018280546106ac906113df565b80156106f95780601f106106ce576101008083540402835291602001916106f9565b820191906000526020600020905b8154815290600101906020018083116106dc57829003601f168201915b5050505050905090565b60008061070e610824565b9050600061071c828661079d565b905083811015610761576040517f08c379a000000000000000000000000000000000000000000000000000000000815260040161075890611212565b60405180910390fd5b61076e828686840361082c565b60019250505092915050565b600080610785610824565b9050610792818585610a83565b600191505092915050565b6000600160008473ffffffffffffffffffffffffffffffffffffffff1673ffffffffffffffffffffffffffffffffffffffff16815260200190815260200160002060008373ffffffffffffffffffffffffffffffffffffffff1673ffffffffffffffffffffffffffffffffffffffff16815260200190815260200160002054905092915050565b600033905090565b600073ffffffffffffffffffffffffffffffffffffffff168373ffffffffffffffffffffffffffffffffffffffff16141561089c576040517f08c379a0000000000000000000000000000000000000000000000000000000008152600401610893906111f2565b60405180910390fd5b600073ffffffffffffffffffffffffffffffffffffffff168273ffffffffffffffffffffffffffffffffffffffff16141561090c576040517f08c379a000000000000000000000000000000000000000000000000000000000815260040161090390611172565b60405180910390fd5b80600160008573ffffffffffffffffffffffffffffffffffffffff1673ffffffffffffffffffffffffffffffffffffffff16815260200190815260200160002060008473ffffffffffffffffffffffffffffffffffffffff1673ffffffffffffffffffffffffffffffffffffffff168152602001908152602001600020819055508173ffffffffffffffffffffffffffffffffffffffff168373ffffffffffffffffffffffffffffffffffffffff167f8c5be1e5ebec7d5bd14f71427d1e84f3dd0314c0f7b2291e5b200ac8c7c3b925836040516109ea9190611252565b60405180910390a3505050565b6000610a03848461079d565b90507fffffffffffffffffffffffffffffffffffffffffffffffffffffffffffffffff8114610a7d5781811015610a6f576040517f08c379a0000000000000000000000000000000000000000000000000000000008152600401610a6690611192565b60405180910390fd5b610a7c848484840361082c565b5b50505050565b600073ffffffffffffffffffffffffffffffffffffffff168373ffffffffffffffffffffffffffffffffffffffff161415610af3576040517f08c379a0000000000000000000000000000000000000000000000000000000008152600401610aea906111d2565b60405180910390fd5b600073ffffffffffffffffffffffffffffffffffffffff168273ffffffffffffffffffffffffffffffffffffffff161415610b63576040517f08c379a0000000000000000000000000000000000000000000000000000000008152600401610b5a90611152565b60405180910390fd5b610b6e838383610e64565b60008060008573ffffffffffffffffffffffffffffffffffffffff1673ffffffffffffffffffffffffffffffffffffffff16815260200190815260200160002054905081811015610bf4576040517f08c379a0000000000000000000000000000000000000000000000000000000008152600401610beb906111b2565b60405180910390fd5b8181036000808673ffffffffffffffffffffffffffffffffffffffff1673ffffffffffffffffffffffffffffffffffffffff16815260200190815260200160002081905550816000808573ffffffffffffffffffffffffffffffffffffffff1673ffffffffffffffffffffffffffffffffffffffff1681526020019081526020016000206000828254610c8791906112cd565b925050819055508273ffffffffffffffffffffffffffffffffffffffff168473ffffffffffffffffffffffffffffffffffffffff167fddf252ad1be2c89b69c2b068fc378daa952ba7f163c4a11628f55a4df523b3ef84604051610ceb9190611252565b60405180910390a3610cfe848484610e69565b50505050565b600073ffffffffffffffffffffffffffffffffffffffff168273ffffffffffffffffffffffffffffffffffffffff161415610d74576040517f08c379a0000000000000000000000000000000000000000000000000000000008152600401610d6b90611232565b60405180910390fd5b610d8060008383610e64565b8060026000828254610d9291906112cd565b92505081905550806000808473ffffffffffffffffffffffffffffffffffffffff1673ffffffffffffffffffffffffffffffffffffffff1681526020019081526020016000206000828254610de791906112cd565b925050819055508173ffffffffffffffffffffffffffffffffffffffff16600073ffffffffffffffffffffffffffffffffffffffff167fddf252ad1be2c89b69c2b068fc378daa952ba7f163c4a11628f55a4df523b3ef83604051610e4c9190611252565b60405180910390a3610e6060008383610e69565b5050565b505050565b505050565b600081359050610e7d816116ac565b92915050565b600081359050610e92816116c3565b92915050565b600060208284031215610eaa57600080fd5b6000610eb884828501610e6e565b91505092915050565b60008060408385031215610ed457600080fd5b6000610ee285828601610e6e565b9250506020610ef385828601610e6e565b9150509250929050565b600080600060608486031215610f1257600080fd5b6000610f2086828701610e6e565b9350506020610f3186828701610e6e565b9250506040610f4286828701610e83565b9150509250925092565b60008060408385031215610f5f57600080fd5b6000610f6d85828601610e6e565b9250506020610f7e85828601610e83565b9150509250929050565b610f9181611357565b82525050565b610fa081611369565b82525050565b6000610fb1826112b1565b610fbb81856112bc565b9350610fcb8185602086016113ac565b610fd48161146f565b840191505092915050565b6000610fec6023836112bc565b9150610ff782611480565b604082019050919050565b600061100f6022836112bc565b915061101a826114cf565b604082019050919050565b6000611032601d836112bc565b915061103d8261151e565b602082019050919050565b60006110556026836112bc565b915061106082611547565b604082019050919050565b60006110786025836112bc565b915061108382611596565b604082019050919050565b600061109b6024836112bc565b91506110a6826115e5565b604082019050919050565b60006110be6025836112bc565b91506110c982611634565b604082019050919050565b60006110e1601f836112bc565b91506110ec82611683565b602082019050919050565b61110081611395565b82525050565b61110f8161139f565b82525050565b600060208201905061112a6000830184610f97565b92915050565b6000602082019050818103600083015261114a8184610fa6565b905092915050565b6000602082019050818103600083015261116b81610fdf565b9050919050565b6000602082019050818103600083015261118b81611002565b9050919050565b600060208201905081810360008301526111ab81611025565b9050919050565b600060208201905081810360008301526111cb81611048565b9050919050565b600060208201905081810360008301526111eb8161106b565b9050919050565b6000602082019050818103600083015261120b8161108e565b9050919050565b6000602082019050818103600083015261122b816110b1565b9050919050565b6000602082019050818103600083015261124b816110d4565b9050919050565b600060208201905061126760008301846110f7565b92915050565b600060408201905061128260008301856110f7565b61128f6020830184610f88565b9392505050565b60006020820190506112ab6000830184611106565b92915050565b600081519050919050565b600082825260208201905092915050565b60006112d882611395565b91506112e383611395565b9250827fffffffffffffffffffffffffffffffffffffffffffffffffffffffffffffffff0382111561131857611317611411565b5b828201905092915050565b600061132e82611395565b915061133983611395565b92508282101561134c5761134b611411565b5b828203905092915050565b600061136282611375565b9050919050565b60008115159050919050565b600073ffffffffffffffffffffffffffffffffffffffff82169050919050565b6000819050919050565b600060ff82169050919050565b60005b838110156113ca5780820151818401526020810190506113af565b838111156113d9576000848401525b50505050565b600060028204905060018216806113f757607f821691505b6020821081141561140b5761140a611440565b5b50919050565b7f4e487b7100000000000000000000000000000000000000000000000000000000600052601160045260246000fd5b7f4e487b7100000000000000000000000000000000000000000000000000000000600052602260045260246000fd5b6000601f19601f8301169050919050565b7f45524332303a207472616e7366657220746f20746865207a65726f206164647260008201527f6573730000000000000000000000000000000000000000000000000000000000602082015250565b7f45524332303a20617070726f766520746f20746865207a65726f20616464726560008201527f7373000000000000000000000000000000000000000000000000000000000000602082015250565b7f45524332303a20696e73756666696369656e7420616c6c6f77616e6365000000600082015250565b7f45524332303a207472616e7366657220616d6f756e742065786365656473206260008201527f616c616e63650000000000000000000000000000000000000000000000000000602082015250565b7f45524332303a207472616e736665722066726f6d20746865207a65726f20616460008201527f6472657373000000000000000000000000000000000000000000000000000000602082015250565b7f45524332303a20617070726f76652066726f6d20746865207a65726f2061646460008201527f7265737300000000000000000000000000000000000000000000000000000000602082015250565b7f45524332303a2064656372656173656420616c6c6f77616e63652062656c6f7760008201527f207a65726f000000000000000000000000000000000000000000000000000000602082015250565b7f45524332303a206d696e7420746f20746865207a65726f206164647265737300600082015250565b6116b581611357565b81146116c057600080fd5b50565b6116cc81611395565b81146116d757600080fd5b5056fea264697066735822122054d96127408344ca5af655335a71080cd92516eeb3f51e914632adc7fdc5d22864736f6c63430008040033",
  "linkReferences": {},
  "deployedLinkReferences": {}
}