{
    "_format": "hh-sol-artifact-1",
    "contractName": "IOCONTRACT",
    "sourceName": "contracts/RopstenBridge.sol",
    "abi": [
        {
            "inputs": [],
            "stateMutability": "nonpayable",
            "type": "constructor"
        },
        {
            "anonymous": false,
            "inputs": [
                {
                    "indexed": true,
                    "internalType": "address",
                    "name": "owner",
                    "type": "address"
                },
                {
                    "indexed": true,
                    "internalType": "address",
                    "name": "spender",
                    "type": "address"
                },
                {
                    "indexed": false,
                    "internalType": "uint256",
                    "name": "value",
                    "type": "uint256"
                }
            ],
            "name": "Approval",
            "type": "event"
        },
        {
            "anonymous": false,
            "inputs": [
                {
                    "indexed": true,
                    "internalType": "address",
                    "name": "from",
                    "type": "address"
                },
                {
                    "indexed": true,
                    "internalType": "address",
                    "name": "to",
                    "type": "address"
                },
                {
                    "indexed": false,
                    "internalType": "uint256",
                    "name": "value",
                    "type": "uint256"
                }
            ],
            "name": "Transfer",
            "type": "event"
        },
        {
            "inputs": [
                {
                    "internalType": "address",
                    "name": "owner",
                    "type": "address"
                },
                {
                    "internalType": "address",
                    "name": "spender",
                    "type": "address"
                }
            ],
            "name": "allowance",
            "outputs": [
                {
                    "internalType": "uint256",
                    "name": "",
                    "type": "uint256"
                }
            ],
            "stateMutability": "view",
            "type": "function"
        },
        {
            "inputs": [
                {
                    "internalType": "address",
                    "name": "spender",
                    "type": "address"
                },
                {
                    "internalType": "uint256",
                    "name": "amount",
                    "type": "uint256"
                }
            ],
            "name": "approve",
            "outputs": [
                {
                    "internalType": "bool",
                    "name": "",
                    "type": "bool"
                }
            ],
            "stateMutability": "nonpayable",
            "type": "function"
        },
        {
            "inputs": [
                {
                    "internalType": "address",
                    "name": "account",
                    "type": "address"
                }
            ],
            "name": "balanceOf",
            "outputs": [
                {
                    "internalType": "uint256",
                    "name": "",
                    "type": "uint256"
                }
            ],
            "stateMutability": "view",
            "type": "function"
        },
        {
            "inputs": [
                {
                    "internalType": "uint256",
                    "name": "amount",
                    "type": "uint256"
                }
            ],
            "name": "burn",
            "outputs": [],
            "stateMutability": "nonpayable",
            "type": "function"
        },
        {
            "inputs": [
                {
                    "internalType": "address",
                    "name": "account",
                    "type": "address"
                },
                {
                    "internalType": "uint256",
                    "name": "amount",
                    "type": "uint256"
                }
            ],
            "name": "burnFrom",
            "outputs": [],
            "stateMutability": "nonpayable",
            "type": "function"
        },
        {
            "inputs": [],
            "name": "decimals",
            "outputs": [
                {
                    "internalType": "uint8",
                    "name": "",
                    "type": "uint8"
                }
            ],
            "stateMutability": "view",
            "type": "function"
        },
        {
            "inputs": [
                {
                    "internalType": "address",
                    "name": "spender",
                    "type": "address"
                },
                {
                    "internalType": "uint256",
                    "name": "subtractedValue",
                    "type": "uint256"
                }
            ],
            "name": "decreaseAllowance",
            "outputs": [
                {
                    "internalType": "bool",
                    "name": "",
                    "type": "bool"
                }
            ],
            "stateMutability": "nonpayable",
            "type": "function"
        },
        {
            "inputs": [
                {
                    "internalType": "uint256",
                    "name": "amount",
                    "type": "uint256"
                }
            ],
            "name": "exchange",
            "outputs": [],
            "stateMutability": "nonpayable",
            "type": "function"
        },
        {
            "inputs": [
                {
                    "internalType": "address",
                    "name": "spender",
                    "type": "address"
                },
                {
                    "internalType": "uint256",
                    "name": "addedValue",
                    "type": "uint256"
                }
            ],
            "name": "increaseAllowance",
            "outputs": [
                {
                    "internalType": "bool",
                    "name": "",
                    "type": "bool"
                }
            ],
            "stateMutability": "nonpayable",
            "type": "function"
        },
        {
            "inputs": [
                {
                    "internalType": "address",
                    "name": "to",
                    "type": "address"
                },
                {
                    "internalType": "uint256",
                    "name": "amount",
                    "type": "uint256"
                }
            ],
            "name": "mint",
            "outputs": [],
            "stateMutability": "nonpayable",
            "type": "function"
        },
        {
            "inputs": [],
            "name": "name",
            "outputs": [
                {
                    "internalType": "string",
                    "name": "",
                    "type": "string"
                }
            ],
            "stateMutability": "view",
            "type": "function"
        },
        {
            "inputs": [],
            "name": "symbol",
            "outputs": [
                {
                    "internalType": "string",
                    "name": "",
                    "type": "string"
                }
            ],
            "stateMutability": "view",
            "type": "function"
        },
        {
            "inputs": [],
            "name": "totalSupply",
            "outputs": [
                {
                    "internalType": "uint256",
                    "name": "",
                    "type": "uint256"
                }
            ],
            "stateMutability": "view",
            "type": "function"
        },
        {
            "inputs": [
                {
                    "internalType": "address",
                    "name": "to",
                    "type": "address"
                },
                {
                    "internalType": "uint256",
                    "name": "amount",
                    "type": "uint256"
                }
            ],
            "name": "transfer",
            "outputs": [
                {
                    "internalType": "bool",
                    "name": "",
                    "type": "bool"
                }
            ],
            "stateMutability": "nonpayable",
            "type": "function"
        },
        {
            "inputs": [
                {
                    "internalType": "address",
                    "name": "from",
                    "type": "address"
                },
                {
                    "internalType": "address",
                    "name": "to",
                    "type": "address"
                },
                {
                    "internalType": "uint256",
                    "name": "amount",
                    "type": "uint256"
                }
            ],
            "name": "transferFrom",
            "outputs": [
                {
                    "internalType": "bool",
                    "name": "",
                    "type": "bool"
                }
            ],
            "stateMutability": "nonpayable",
            "type": "function"
        }
    ],
    "bytecode": "0x60806040523480156200001157600080fd5b506040518060400160405280600a81526020017f494f434f4e5452414354000000000000000000000000000000000000000000008152506040518060400160405280600381526020017f494f430000000000000000000000000000000000000000000000000000000000815250816003908051906020019062000096929190620000b8565b508060049080519060200190620000af929190620000b8565b505050620001cd565b828054620000c69062000168565b90600052602060002090601f016020900481019282620000ea576000855562000136565b82601f106200010557805160ff191683800117855562000136565b8280016001018555821562000136579182015b828111156200013557825182559160200191906001019062000118565b5b50905062000145919062000149565b5090565b5b80821115620001645760008160009055506001016200014a565b5090565b600060028204905060018216806200018157607f821691505b602082108114156200019857620001976200019e565b5b50919050565b7f4e487b7100000000000000000000000000000000000000000000000000000000600052602260045260246000fd5b61188280620001dd6000396000f3fe608060405234801561001057600080fd5b50600436106100f55760003560e01c806342966c681161009757806395d89b411161006657806395d89b4114610284578063a457c2d7146102a2578063a9059cbb146102d2578063dd62ed3e14610302576100f5565b806342966c6814610200578063535565591461021c57806370a082311461023857806379cc679014610268576100f5565b806323b872dd116100d357806323b872dd14610166578063313ce5671461019657806339509351146101b457806340c10f19146101e4576100f5565b806306fdde03146100fa578063095ea7b31461011857806318160ddd14610148575b600080fd5b610102610332565b60405161010f91906111ed565b60405180910390f35b610132600480360381019061012d9190610fa9565b6103c4565b60405161013f91906111d2565b60405180910390f35b6101506103e7565b60405161015d919061134f565b60405180910390f35b610180600480360381019061017b9190610f5a565b6103f1565b60405161018d91906111d2565b60405180910390f35b61019e610420565b6040516101ab919061136a565b60405180910390f35b6101ce60048036038101906101c99190610fa9565b610429565b6040516101db91906111d2565b60405180910390f35b6101fe60048036038101906101f99190610fa9565b610460565b005b61021a60048036038101906102159190610fe5565b61046e565b005b61023660048036038101906102319190610fe5565b610482565b005b610252600480360381019061024d9190610ef5565b61048f565b60405161025f919061134f565b60405180910390f35b610282600480360381019061027d9190610fa9565b6104d7565b005b61028c6104f7565b60405161029991906111ed565b60405180910390f35b6102bc60048036038101906102b79190610fa9565b610589565b6040516102c991906111d2565b60405180910390f35b6102ec60048036038101906102e79190610fa9565b610600565b6040516102f991906111d2565b60405180910390f35b61031c60048036038101906103179190610f1e565b610623565b604051610329919061134f565b60405180910390f35b606060038054610341906114b3565b80601f016020809104026020016040519081016040528092919081815260200182805461036d906114b3565b80156103ba5780601f1061038f576101008083540402835291602001916103ba565b820191906000526020600020905b81548152906001019060200180831161039d57829003601f168201915b5050505050905090565b6000806103cf6106aa565b90506103dc8185856106b2565b600191505092915050565b6000600254905090565b6000806103fc6106aa565b905061040985828561087d565b610414858585610909565b60019150509392505050565b60006012905090565b6000806104346106aa565b90506104558185856104468589610623565b61045091906113a1565b6106b2565b600191505092915050565b61046a8282610b8a565b5050565b61047f6104796106aa565b82610cea565b50565b61048c33826104d7565b50565b60008060008373ffffffffffffffffffffffffffffffffffffffff1673ffffffffffffffffffffffffffffffffffffffff168152602001908152602001600020549050919050565b6104e9826104e36106aa565b8361087d565b6104f38282610cea565b5050565b606060048054610506906114b3565b80601f0160208091040260200160405190810160405280929190818152602001828054610532906114b3565b801561057f5780601f106105545761010080835404028352916020019161057f565b820191906000526020600020905b81548152906001019060200180831161056257829003601f168201915b5050505050905090565b6000806105946106aa565b905060006105a28286610623565b9050838110156105e7576040517f08c379a00000000000000000000000000000000000000000000000000000000081526004016105de9061130f565b60405180910390fd5b6105f482868684036106b2565b60019250505092915050565b60008061060b6106aa565b9050610618818585610909565b600191505092915050565b6000600160008473ffffffffffffffffffffffffffffffffffffffff1673ffffffffffffffffffffffffffffffffffffffff16815260200190815260200160002060008373ffffffffffffffffffffffffffffffffffffffff1673ffffffffffffffffffffffffffffffffffffffff16815260200190815260200160002054905092915050565b600033905090565b600073ffffffffffffffffffffffffffffffffffffffff168373ffffffffffffffffffffffffffffffffffffffff161415610722576040517f08c379a0000000000000000000000000000000000000000000000000000000008152600401610719906112ef565b60405180910390fd5b600073ffffffffffffffffffffffffffffffffffffffff168273ffffffffffffffffffffffffffffffffffffffff161415610792576040517f08c379a00000000000000000000000000000000000000000000000000000000081526004016107899061124f565b60405180910390fd5b80600160008573ffffffffffffffffffffffffffffffffffffffff1673ffffffffffffffffffffffffffffffffffffffff16815260200190815260200160002060008473ffffffffffffffffffffffffffffffffffffffff1673ffffffffffffffffffffffffffffffffffffffff168152602001908152602001600020819055508173ffffffffffffffffffffffffffffffffffffffff168373ffffffffffffffffffffffffffffffffffffffff167f8c5be1e5ebec7d5bd14f71427d1e84f3dd0314c0f7b2291e5b200ac8c7c3b92583604051610870919061134f565b60405180910390a3505050565b60006108898484610623565b90507fffffffffffffffffffffffffffffffffffffffffffffffffffffffffffffffff811461090357818110156108f5576040517f08c379a00000000000000000000000000000000000000000000000000000000081526004016108ec9061126f565b60405180910390fd5b61090284848484036106b2565b5b50505050565b600073ffffffffffffffffffffffffffffffffffffffff168373ffffffffffffffffffffffffffffffffffffffff161415610979576040517f08c379a0000000000000000000000000000000000000000000000000000000008152600401610970906112cf565b60405180910390fd5b600073ffffffffffffffffffffffffffffffffffffffff168273ffffffffffffffffffffffffffffffffffffffff1614156109e9576040517f08c379a00000000000000000000000000000000000000000000000000000000081526004016109e09061120f565b60405180910390fd5b6109f4838383610ec1565b60008060008573ffffffffffffffffffffffffffffffffffffffff1673ffffffffffffffffffffffffffffffffffffffff16815260200190815260200160002054905081811015610a7a576040517f08c379a0000000000000000000000000000000000000000000000000000000008152600401610a719061128f565b60405180910390fd5b8181036000808673ffffffffffffffffffffffffffffffffffffffff1673ffffffffffffffffffffffffffffffffffffffff16815260200190815260200160002081905550816000808573ffffffffffffffffffffffffffffffffffffffff1673ffffffffffffffffffffffffffffffffffffffff1681526020019081526020016000206000828254610b0d91906113a1565b925050819055508273ffffffffffffffffffffffffffffffffffffffff168473ffffffffffffffffffffffffffffffffffffffff167fddf252ad1be2c89b69c2b068fc378daa952ba7f163c4a11628f55a4df523b3ef84604051610b71919061134f565b60405180910390a3610b84848484610ec6565b50505050565b600073ffffffffffffffffffffffffffffffffffffffff168273ffffffffffffffffffffffffffffffffffffffff161415610bfa576040517f08c379a0000000000000000000000000000000000000000000000000000000008152600401610bf19061132f565b60405180910390fd5b610c0660008383610ec1565b8060026000828254610c1891906113a1565b92505081905550806000808473ffffffffffffffffffffffffffffffffffffffff1673ffffffffffffffffffffffffffffffffffffffff1681526020019081526020016000206000828254610c6d91906113a1565b925050819055508173ffffffffffffffffffffffffffffffffffffffff16600073ffffffffffffffffffffffffffffffffffffffff167fddf252ad1be2c89b69c2b068fc378daa952ba7f163c4a11628f55a4df523b3ef83604051610cd2919061134f565b60405180910390a3610ce660008383610ec6565b5050565b600073ffffffffffffffffffffffffffffffffffffffff168273ffffffffffffffffffffffffffffffffffffffff161415610d5a576040517f08c379a0000000000000000000000000000000000000000000000000000000008152600401610d51906112af565b60405180910390fd5b610d6682600083610ec1565b60008060008473ffffffffffffffffffffffffffffffffffffffff1673ffffffffffffffffffffffffffffffffffffffff16815260200190815260200160002054905081811015610dec576040517f08c379a0000000000000000000000000000000000000000000000000000000008152600401610de39061122f565b60405180910390fd5b8181036000808573ffffffffffffffffffffffffffffffffffffffff1673ffffffffffffffffffffffffffffffffffffffff168152602001908152602001600020819055508160026000828254610e4391906113f7565b92505081905550600073ffffffffffffffffffffffffffffffffffffffff168373ffffffffffffffffffffffffffffffffffffffff167fddf252ad1be2c89b69c2b068fc378daa952ba7f163c4a11628f55a4df523b3ef84604051610ea8919061134f565b60405180910390a3610ebc83600084610ec6565b505050565b505050565b505050565b600081359050610eda8161181e565b92915050565b600081359050610eef81611835565b92915050565b600060208284031215610f0757600080fd5b6000610f1584828501610ecb565b91505092915050565b60008060408385031215610f3157600080fd5b6000610f3f85828601610ecb565b9250506020610f5085828601610ecb565b9150509250929050565b600080600060608486031215610f6f57600080fd5b6000610f7d86828701610ecb565b9350506020610f8e86828701610ecb565b9250506040610f9f86828701610ee0565b9150509250925092565b60008060408385031215610fbc57600080fd5b6000610fca85828601610ecb565b9250506020610fdb85828601610ee0565b9150509250929050565b600060208284031215610ff757600080fd5b600061100584828501610ee0565b91505092915050565b6110178161143d565b82525050565b600061102882611385565b6110328185611390565b9350611042818560208601611480565b61104b81611543565b840191505092915050565b6000611063602383611390565b915061106e82611554565b604082019050919050565b6000611086602283611390565b9150611091826115a3565b604082019050919050565b60006110a9602283611390565b91506110b4826115f2565b604082019050919050565b60006110cc601d83611390565b91506110d782611641565b602082019050919050565b60006110ef602683611390565b91506110fa8261166a565b604082019050919050565b6000611112602183611390565b915061111d826116b9565b604082019050919050565b6000611135602583611390565b915061114082611708565b604082019050919050565b6000611158602483611390565b915061116382611757565b604082019050919050565b600061117b602583611390565b9150611186826117a6565b604082019050919050565b600061119e601f83611390565b91506111a9826117f5565b602082019050919050565b6111bd81611469565b82525050565b6111cc81611473565b82525050565b60006020820190506111e7600083018461100e565b92915050565b60006020820190508181036000830152611207818461101d565b905092915050565b6000602082019050818103600083015261122881611056565b9050919050565b6000602082019050818103600083015261124881611079565b9050919050565b600060208201905081810360008301526112688161109c565b9050919050565b60006020820190508181036000830152611288816110bf565b9050919050565b600060208201905081810360008301526112a8816110e2565b9050919050565b600060208201905081810360008301526112c881611105565b9050919050565b600060208201905081810360008301526112e881611128565b9050919050565b600060208201905081810360008301526113088161114b565b9050919050565b600060208201905081810360008301526113288161116e565b9050919050565b6000602082019050818103600083015261134881611191565b9050919050565b600060208201905061136460008301846111b4565b92915050565b600060208201905061137f60008301846111c3565b92915050565b600081519050919050565b600082825260208201905092915050565b60006113ac82611469565b91506113b783611469565b9250827fffffffffffffffffffffffffffffffffffffffffffffffffffffffffffffffff038211156113ec576113eb6114e5565b5b828201905092915050565b600061140282611469565b915061140d83611469565b9250828210156114205761141f6114e5565b5b828203905092915050565b600061143682611449565b9050919050565b60008115159050919050565b600073ffffffffffffffffffffffffffffffffffffffff82169050919050565b6000819050919050565b600060ff82169050919050565b60005b8381101561149e578082015181840152602081019050611483565b838111156114ad576000848401525b50505050565b600060028204905060018216806114cb57607f821691505b602082108114156114df576114de611514565b5b50919050565b7f4e487b7100000000000000000000000000000000000000000000000000000000600052601160045260246000fd5b7f4e487b7100000000000000000000000000000000000000000000000000000000600052602260045260246000fd5b6000601f19601f8301169050919050565b7f45524332303a207472616e7366657220746f20746865207a65726f206164647260008201527f6573730000000000000000000000000000000000000000000000000000000000602082015250565b7f45524332303a206275726e20616d6f756e7420657863656564732062616c616e60008201527f6365000000000000000000000000000000000000000000000000000000000000602082015250565b7f45524332303a20617070726f766520746f20746865207a65726f20616464726560008201527f7373000000000000000000000000000000000000000000000000000000000000602082015250565b7f45524332303a20696e73756666696369656e7420616c6c6f77616e6365000000600082015250565b7f45524332303a207472616e7366657220616d6f756e742065786365656473206260008201527f616c616e63650000000000000000000000000000000000000000000000000000602082015250565b7f45524332303a206275726e2066726f6d20746865207a65726f2061646472657360008201527f7300000000000000000000000000000000000000000000000000000000000000602082015250565b7f45524332303a207472616e736665722066726f6d20746865207a65726f20616460008201527f6472657373000000000000000000000000000000000000000000000000000000602082015250565b7f45524332303a20617070726f76652066726f6d20746865207a65726f2061646460008201527f7265737300000000000000000000000000000000000000000000000000000000602082015250565b7f45524332303a2064656372656173656420616c6c6f77616e63652062656c6f7760008201527f207a65726f000000000000000000000000000000000000000000000000000000602082015250565b7f45524332303a206d696e7420746f20746865207a65726f206164647265737300600082015250565b6118278161142b565b811461183257600080fd5b50565b61183e81611469565b811461184957600080fd5b5056fea2646970667358221220c95518f3246ef9c153ed2be9be8dd2ef3fd1a046164a632304cbf157cf924ca764736f6c63430008040033",
    "linkReferences": {},
    "deployedLinkReferences": {}
}